:100000000C9424010C9438010C9438010C943801A0
:100010000C9438010C9438010C9438010C9438017C
:100020000C9438010C9438010C9438010C9438016C
:100030000C9438010C9438010C9438010C9438015C
:100040000C9438010C9438010C9438010C9438014C
:100050000C9438010C9438010C9438010C941D0256
:100060000C9438010C9438010C9438010C9438012C
:100070000C9438010C9438010C9438010C9438011C
:100080000C9438010C9438010C9438010C9438010C
:100090000C9438010C9438010C9438010C943801FC
:1000A0000C9438010C9438010C9438010C943801EC
:1000B0000C9438010C9438010C9438010C943801DC
:1000C0000C9438010C9438010C9438010C943801CC
:1000D0000C9438010C9438010C9438010C943801BC
:1000E0000C9438010C946A010C9481010C949001D9
:1000F0000C94BC010C94C0010C94B6010C948901C1
:100100000C9485010C948D010C949A010C94960129
:100110000C946F010C94B2010C94A0010C94A801F2
:100120000C94A4010C94AE010000210024002700CF
:100130002A002D00300033000101000004010701F6
:100140000A0100002200250028002B002E003100AB
:10015000340002010000050108010B0100000A0B38
:1001600002090C0D0E080703040100000000000046
:10017000000000000000000000000000000000007F
:10018000000000000000000012111000000000003C
:10019000000000000000000000000000000000005F
:1001A0000000000020002300260029002C002F0062
:1001B00032000001000003010601090105050505E3
:1001C000070508080808020202020A0A08080404CF
:1001D00004040101010101010101030303030303FD
:1001E0000303040707070C0C0C0C0C0C0C0C02028C
:1001F000020206060606060606060B0B0B0B0B0B89
:100200000B0B010210202008081020401020408015
:1002100002010201080402010102040810204080CA
:100220008040201008040201800402018040201058
:1002300008040201080402010102040810204080A1
:10024000010204081020408011241FBECFEFD1E22C
:10025000DEBFCDBF00E00CBF22E0A0E0B2E001C0F5
:100260001D92A930B207E1F70E94AC020C9467031B
:100270000C940000282F30E0F901E45AFE4F9491CD
:10028000F901EE5FFD4F449124543E4FF901249152
:10029000222309F435C0992311F191509231F8F4D9
:1002A000E92FF0E08827E85AFE4F8F4F0C945F0348
:1002B00089018D016A01810185016F01900196011B
:1002C0009A01A001A401A801AE01B2016F01B6011B
:1002D000BC01C001809180008F7780938000E22F65
:1002E000F0E0EE0FFF1FEE5BFE4FA591B4918FB7CC
:1002F000F894EC91611148C040954E234C938FBF08
:100300000895809180008F7DE8CF80918000877F65
:10031000E4CF84B58F7784BDE2CF84B58F7DFBCFEA
:100320008091B0008F778093B000D9CF8091B000DA
:100330008F7DF9CF809190008F7780939000CFCF01
:10034000809190008F7DF9CF80919000877FF5CFCD
:100350008091A0008F778093A000C1CF8091A000F2
:100360008F7DF9CF8091A000877FF5CF809120010C
:100370008F7780932001B3CF809120018F7DF9CFBB
:1003800080912001877FF5CF4E2BB8CFCF93DF939D
:1003900090E0FC01EE5FFD4F249184549E4FFC01E0
:1003A00084918823D1F090E0880F991FFC01E85DCB
:1003B000FE4FA591B491FC01EE5BFE4FC591D49127
:1003C00061110EC09FB7F8948C91E22FE0958E23B7
:1003D0008C932881E223E8839FBFDF91CF9108951A
:1003E0008FB7F894EC91E22BEC938FBFF6CF0F937D
:1003F0001F9390E0FC01EE5FFD4F6491FC01E4541B
:10040000FE4FE491F0E0EE0FFF1FEE55FE4F859199
:10041000949100E412E42FE030E0462F0E9467023E
:10042000611571058105910529F06F5F7F4F8F4F31
:100430009F4F9F701F910F9108951F920F920FB6BB
:100440000F9211242F933F938F939F93AF93BF935A
:100450008091050290910602A0910702B0910802D6
:100460003091040223E0230F2D3758F50196A11D8A
:10047000B11D209304028093050290930602A0937D
:100480000702B09308028091000290910102A091AE
:100490000202B09103020196A11DB11D80930002DA
:1004A00090930102A0930202B0930302BF91AF9117
:1004B0009F918F913F912F910F900FBE0F901F90A2
:1004C000189526E8230F0296A11DB11DD2CFCF9219
:1004D000DF92EF92FF920F931F93E82FF92F05C041
:1004E000015011092109310961F190819623941776
:1004F000B9F305C0015011092109310911F19081A9
:1005000096239413F7CFC12CD12CE12CF12C0AC0E7
:100510008FEFC81AD80AE80AF80A0C151D052E052F
:100520003F0579F080818623841791F36C2D7D2D12
:100530008E2D9F2D1F910F91FF90EF90DF90CF9008
:10054000089560E070E080E090E01F910F91FF90CF
:10055000EF90DF90CF900895789484B5826084BD49
:1005600084B5816084BD85B5826085BD85B58160B7
:1005700085BD80916E00816080936E001092810035
:1005800080918100826080938100809181008160F0
:1005900080938100809180008160809380008091B1
:1005A000B10084608093B1008091B000816080933D
:1005B000B0008091910082608093910080919100C1
:1005C0008160809391008091900081608093900081
:1005D0008091A10082608093A1008091A100816040
:1005E0008093A1008091A00081608093A000809101
:1005F000210182608093210180912101816080939B
:1006000021018091200181608093200180917A00F6
:10061000846080937A0080917A00826080937A006F
:1006200080917A00816080937A0080917A0080685E
:1006300080937A001092C10061E086E10E94C601B9
:1006400061E088E10E94C60161E08AE10E94C60182
:1006500060E087E10E94C60160E089E10E94C60176
:1006600060E08BE10E94C601C3E0D0E003E210E04D
:1006700080E0E82E80E0F82E60E086E10E943A01FA
:1006800060E088E10E943A0160E08AE10E943A015C
:10069000CE010197F1F761E088E10E943A01C801BB
:1006A0000197F1F760E088E10E943A018BE10E9436
:1006B000F701E114F10401F30E940000DDCFEE0F19
:1006C000FF1F881F8BBF0790F691E02D1994F894B7
:0206D000FFCF5A
:00000001FF
