:100000000C9435010C9466010C9466010C94660105
:100010000C9466010C9466010C9466010C946601C4
:100020000C9466010C9466010C9466010C946601B4
:100030000C9466010C9466010C9466010C946601A4
:100040000C9466010C9466010C9466010C94660194
:100050000C9466010C9466010C9466010C945E0588
:100060000C9466010C94D2050C94A8050C946601BE
:100070000C9466010C9466010C9466010C94660164
:100080000C9466010C9466010C9466010C94660154
:100090000C9466010C9466010C9466010C94660144
:1000A0000C9466010C9466010C9466010C94660134
:1000B0000C9466010C9466010C9466010C94660124
:1000C0000C9466010C9466010C9466010C94660114
:1000D0000C9466010C9466010C9466010C94660104
:1000E0000C9466010C94D2010C94B8020C94BE01DD
:1000F0000C94B3010C94AF010C9441090C949D0134
:100100000C94BB010C947C020C94C4010C94CE01A1
:100110000C94CC020C94C8010C9412030C94E401CE
:100120000C9498010C94A9020C945F030C94DA02CD
:100130000C94DC010C94EE010C94D6010C94B701E4
:100140000C94EA010C94E001000021002400270037
:100150002A002D00300033000101000004010701D6
:100160000A0100002200250028002B002E0031008B
:10017000340002010000050108010B0100000A0B18
:1001800002090C0D0E080703040100000000000026
:10019000000000000000000000000000000000005F
:1001A000000000000000000012111000000000001C
:1001B000000000000000000000000000000000003F
:1001C0000000000020002300260029002C002F0042
:1001D00032000001000003010601090105050505C3
:1001E000070508080808020202020A0A08080404AF
:1001F00004040101010101010101030303030303DD
:100200000303040707070C0C0C0C0C0C0C0C02026B
:10021000020206060606060606060B0B0B0B0B0B68
:100220000B0B0102102020080810204010204080F5
:1002300002010201080402010102040810204080AA
:100240008040201008040201800402018040201038
:100250000804020108040201010204081020408081
:100260000102040810204080410911241FBECFEF75
:10027000D1E2DEBFCDBF00E00CBF12E0A0E0B2E0F3
:10028000E6EFF9E100E00BBF02C007900D92A23C3F
:10029000B107D9F723E0A2ECB2E001C01D92AE365F
:1002A000B207E1F711E0C5E3D1E000E006C0219715
:1002B0000109802FFE010E949009C433D10780E01C
:1002C0000807A9F70E944D060C94F90C0C94000045
:1002D000282F30E0F901E458FE4F9491F901EE5DCA
:1002E000FD4F449124523E4FF9012491222309F4F9
:1002F00035C0992311F191509231F8F4E92FF0E0D3
:100300008827EA57FE4F8F4F0C949009B701BB0125
:100310009801AF01B3019D01BE01C401C801CE0126
:10032000D201D601DC01E0019D01E401EA01EE0108
:10033000809180008F7780938000E22FF0E0EE0FB5
:10034000FF1FEE59FE4FA591B4918FB7F894EC9131
:10035000611148C040954E234C938FBF0895809102
:1003600080008F7DE8CF80918000877FE4CF84B5C7
:100370008F7784BDE2CF84B58F7DFBCF8091B000B5
:100380008F778093B000D9CF8091B0008F7DF9CF67
:10039000809190008F7780939000CFCF80919000D4
:1003A0008F7DF9CF80919000877FF5CF8091A0005D
:1003B0008F778093A000C1CF8091A0008F7DF9CF6F
:1003C0008091A000877FF5CF809120018F77809367
:1003D0002001B3CF809120018F7DF9CF8091200142
:1003E000877FF5CF4E2BB8CFCF93DF9390E0FC0102
:1003F000EE5DFD4F249184529E4FFC018491882331
:10040000D1F090E0880F991FFC01E85BFE4FA591A9
:10041000B491FC01EE59FE4FC591D49161110EC00B
:100420009FB7F8948C91E22FE0958E238C932881CE
:10043000E223E8839FBFDF91CF9108958FB7F894AF
:10044000EC91E22BEC938FBFF6CF3FB7F8948091FD
:10045000C9029091CA02A091CB02B091CC0226B5FC
:10046000A89B05C02F3F19F00196A11DB11D3FBFEC
:10047000BA2FA92F982F8827BC01CD01620F711DBB
:10048000811D911D42E0660F771F881F991F4A95B5
:10049000D1F708958F929F92AF92BF92CF92DF9241
:1004A000EF92FF924B015C010E9425026B017C01DF
:1004B0000E9425026C197D098E099F09683E7340D0
:1004C00081059105A8F321E0821A9108A108B108DD
:1004D00088EEC80E83E0D81EE11CF11C8114910443
:1004E000A104B10429F7FF90EF90DF90CF90BF9067
:1004F000AF909F908F900895AF92BF92CF92DF926E
:10050000EF92FF920F931F93CF93DF936C017B01C8
:100510008B01040F151FEB015E01AE18BF08C01759
:10052000D10759F06991D601ED91FC910190F081CC
:10053000E02DC6011995892B79F7C501DF91CF917F
:100540001F910F91FF90EF90DF90CF90BF90AF90F1
:100550000895FC01538D448D252F30E0842F90E0C9
:10056000821B930B541710F0CF96089501970895AE
:10057000FC01918D828D981761F0A28DAE0FBF2F77
:10058000B11D5D968C91928D9F5F9F73928F90E0CD
:1005900008958FEF9FEF0895FC01918D828D98173C
:1005A00031F0828DE80FF11D858D90E008958FEF79
:1005B0009FEF0895FC01918D228D892F90E0805C42
:1005C0009F4F821B91098F73992708958DEC92E0BC
:1005D0000E94DA0221E0892B09F420E0822F08959D
:1005E000FC01A48DA80FB92FB11DA35ABF4F2C91A8
:1005F000848D90E001968F739927848FA689B7899F
:100600002C93A089B1898C91837080648C93938D95
:10061000848D981306C00288F389E02D80818F7D38
:1006200080830895EF92FF920F931F93CF93DF93F0
:10063000EC0181E0888F9B8D8C8D98131AC0E8891E
:10064000F989808185FF15C09FB7F894EE89FF89ED
:100650006083E889F98980818370806480839FBF8B
:1006600081E090E0DF91CF911F910F91FF90EF908B
:100670000895F62E0B8D10E00F5F1F4F0F7311279B
:10068000E02E8C8D8E110CC00FB607FCFACFE889D6
:10069000F989808185FFF5CFCE010E94F002F1CF6C
:1006A000EB8DEC0FFD2FF11DE35AFF4FF0829FB74A
:1006B000F8940B8FEA89FB8980818062CFCFCF933A
:1006C000DF93EC01888D8823B9F0AA89BB89E8897A
:1006D000F9898C9185FD03C0808186FD0DC00FB620
:1006E00007FCF7CF8C9185FFF2CF808185FFEDCF9E
:1006F000CE010E94F002E9CFDF91CF91089580E012
:1007000090E0892B29F00E94E60281110E940000EE
:1007100080E090E0892B49F080E090E0892B29F07F
:100720000E94000081110E94000080E090E0892B6F
:1007300049F080E090E0892B29F00E9400008111AF
:100740000E94000080E090E0892B49F080E090E07A
:10075000892B29F00E94000081110C94000008955B
:100760008F929F92AF92BF92CF92DF92EF92FF92C1
:100770000F931F93CF93DF938B017C016B0183E079
:10078000C80ED11CD0E0C0E0812C912C5401F8019E
:1007900081918F01882361F0F701208131814281AD
:1007A0005381C501B4010E9499094B015C01219656
:1007B000F4E0EF0EF11C0C151D0549F760E070E048
:1007C000CB01209761F0BE01DD0F880B990B0E94D1
:1007D000AD0A9B01AC01C501B4010E940A0ADF9178
:1007E000CF911F910F91FF90EF90DF90CF90BF902E
:1007F000AF909F908F9008950F931F9390E0FC010E
:10080000EE5DFD4F6491FC01E452FE4FE491F0E097
:10081000EE0FFF1FEE53FE4F8591949100E412E41A
:100820002FE030E0462F0E94080661157105810512
:10083000910529F06F5F7F4F8F4F9F4F9F701F91E2
:100840000F910895FC0101900020E9F73197AF0165
:10085000481B590BBC018DEC92E00C947C028F92EA
:100860009F92AF92BF920F931F93CF93DF93CDB719
:10087000DEB7A1970FB6F894DEBF0FBECDBF19A2A9
:10088000423008F44AE08E010F5D1F4F842E912CF8
:10089000B12CA12CA50194010E946E09E62FB9018B
:1008A000CA01EA30F4F4E05DD801EE938D01232B08
:1008B000242B252B79F790E080E0109719F0CD01DB
:1008C0000E942204A1960FB6F894DEBF0FBECDBFE2
:1008D000DF91CF911F910F91BF90AF909F908F901C
:1008E0000895E95CE1CF4F925F926F927F928F9271
:1008F0009F92AF92BF92CF92DF92EF92FF920F93AF
:100900001F93CF936B017C01742EAC019B010E945D
:10091000CF0B882399F08BE192E0CF911F910F913B
:10092000FF90EF90DF90CF90BF90AF909F908F900F
:100930007F906F905F904F900C9422044601570176
:10094000E894B7F82FEF3FEF4FE75FE7C501B40139
:100950000E94CF0B81110DC02FEF3FEF4FE75FE7F4
:10096000C501B4010E94050A18161CF48FE192E03B
:10097000D4CF2FEF3FEF4FE75FE4C701B6010E94EE
:100980005D0B18161CF483E292E0C7CF2FEF3FEF08
:100990004FE75FECC701B6010E94050A87FDF3CF60
:1009A00020E030E0A901C701B6010E94050A10E06D
:1009B00000E087FF0AC06DE28DEC92E00E94120316
:1009C0008C01F7FAF094F7F8F094C0E060E070E082
:1009D00080E09FE37C1641F020E030E040E251E40B
:1009E0000E940A0ACF5FF6CFA70196010E949909DB
:1009F0002B013C010E947C0A4B015C014AE00E94F1
:100A00002F047C01E00EF11ECC23C1F1C501B4011D
:100A10000E94AB0A9B01AC01C301B2010E9498097C
:100A20004B015C016EE28DEC92E00E941203E80E35
:100A3000F91EC15018F120E030E040E251E4C50158
:100A4000B4010E94620B2B013C010E947C0A4B0105
:100A5000B12CA12C4AE0C501B4010E942F04E80E7C
:100A6000F91EC501B4010E94AB0A9B01AC01C30190
:100A7000B2010E9498094B015C01DBCFC701CF9105
:100A80001F910F91FF90EF90DF90CF90BF90AF90AC
:100A90009F908F907F906F905F904F900895CF932D
:100AA000DF9342E00E947304EC0187E292E00E942F
:100AB00022048C0F9D1FDF91CF9108951F920F92FA
:100AC0000FB60F9211242F933F938F939F93AF9361
:100AD000BF938091C5029091C602A091C702B091C8
:100AE000C8023091C40223E0230F2D3758F5019638
:100AF000A11DB11D2093C4028093C5029093C6022C
:100B0000A093C702B093C8028091C9029091CA0213
:100B1000A091CB02B091CC020196A11DB11D809392
:100B2000C9029093CA02A093CB02B093CC02BF91AA
:100B3000AF919F918F913F912F910F900FBE0F908A
:100B40001F90189526E8230F0296A11DB11DD2CF44
:100B50001F920F920FB60F9211240BB60F922F9384
:100B60003F934F935F936F937F938F939F93AF9335
:100B7000BF93EF93FF938DEC92E00E94F002FF9100
:100B8000EF91BF91AF919F918F917F916F915F9105
:100B90004F913F912F910F900BBE0F900FBE0F9072
:100BA0001F9018951F920F920FB60F9211240BB63B
:100BB0000F922F938F939F93EF93FF93E091DD021A
:100BC000F091DE028081E091E302F091E40282FD87
:100BD0001DC090818091E6028F5F8F732091E702A4
:100BE000821741F0E091E602F0E0E353FD4F958F6C
:100BF0008093E602FF91EF919F918F912F910F903B
:100C00000BBE0F900FBE0F901F9018958081F2CFF2
:100C1000CF92DF92EF92FF920F931F93E82FF92F5D
:100C200005C0015011092109310961F19081962314
:100C30009417B9F305C0015011092109310911F1C7
:100C4000908196239413F7CFC12CD12CE12CF12C59
:100C50000AC08FEFC81AD80AE80AF80A0C151D0551
:100C60002E053F0579F080818623841791F36C2D42
:100C70007D2D8E2D9F2D1F910F91FF90EF90DF9076
:100C8000CF90089560E070E080E090E01F910F91B8
:100C9000FF90EF90DF90CF900895CF93DF93CDB783
:100CA000DEB7A0970FB6F894DEBF0FBECDBF789425
:100CB00084B5826084BD84B5816084BD85B5826061
:100CC00085BD85B5816085BD80916E008160809312
:100CD0006E0010928100809181008260809381007B
:100CE000809181008160809381008091800081608B
:100CF000809380008091B10084608093B1008091E6
:100D0000B00081608093B0008091910082608093F8
:100D1000910080919100816080939100809190007A
:100D20008160809390008091A10082608093A100F7
:100D30008091A10081608093A1008091A0008160DA
:100D40008093A00080912101826080932101809195
:100D50002101816080932101809120018160809335
:100D6000200180917A00846080937A0080917A00DB
:100D7000826080937A0080917A00816080937A000B
:100D800080917A00806880937A001092C10061E0BF
:100D900086E10E94F40161E08AE10E94F40161E0D1
:100DA0008EE10E94F40160E087E10E94F40160E0BE
:100DB0008BE10E94F40160E08FE10E94F401E09178
:100DC000DD02F091DE0282E08083E091D902F091B1
:100DD000DA021082E091DB02F091DC028FEC80837A
:100DE0001092E502E091E102F091E20286E0808358
:100DF000E091DF02F091E002808180618083E091E8
:100E0000DF02F091E002808188608083E091DF0260
:100E1000F091E002808180688083E091DF02F091B0
:100E2000E00280818F7D808323E2222E312CC090CE
:100E30000602D0900702E0900802CE8EDF8EE8A274
:100E40009E01205F3F4F398B288B83E090E00E940A
:100E5000D40B5C017C0110E000E093E0C92ED12CA2
:100E600060E086E10E94680160E08AE10E9468011A
:100E700060E08EE10E946801C6010197F1F761E030
:100E80000130110509F4C6C10230110509F4CEC1C3
:100E900086E10E946801C1010197F1F760E086E1F7
:100EA0000E94680187E10E94FC030E94AB0A28E2CD
:100EB0003EE74CE85CE30E94620BF701619371939B
:100EC000819391937F0164E670E080E090E00E945E
:100ED0004A020F5F1F4F0330110509F0C1CFA092E6
:100EE000C202B092C3028AE292E00E942204E09120
:100EF000C202F091C302608171818281938142E0DC
:100F00000E94730480E492E00E942204E091C202F5
:100F1000F091C302648175818681978142E00E94CD
:100F2000730487E492E00E942204E091C202F091EF
:100F3000C302608571858285938542E00E947304B7
:100F40008EE492E00E94220482E592E00E94220454
:100F5000E091C202F091C3024084518462847384A0
:100F6000A480B580C680D780E080F18002811381A3
:100F70009501A601B701C8010E9498099F7720E05A
:100F800030E040E050E40E94050A87FD24C0A30140
:100F90009201B701C8010E9498099F7720E030E0D4
:100FA00040E050E40E94050A87FD15C0A3019201AC
:100FB000B501C6010E9498099F7720E030E040E02B
:100FC00050E40E94050A7501860187FD04C0E12CEA
:100FD000F12C00E81FEBB701C8010E944F058BE61A
:100FE00092E00E942204E091C202F091C302608468
:100FF000718402851385C480D580E680F780808067
:101000009180A280B3809401A501B601C7010E941E
:10101000050A87FF0AC03C2D2D2D9E2D8F2D6401C2
:101020007501832E922EA92EB82E9601A701B30129
:10103000C8010E94050A87FF02C06301780194017C
:10104000A501B601C7010E94050A87FF02C064011D
:101050007501B601C7010E944F0589E892E00E9420
:101060002204E091C202F091C30240845184628460
:101070007384C480D580E680F78080809180A280D0
:10108000B380A7019601C501B4010E9498099B0194
:10109000AC015F772A8B3B8B4C8B5D8BA30192015C
:1010A000C701B6010E9498099B01AC015F772E8BA6
:1010B0003F8B488F598FA3019201C501B4010E9453
:1010C00098099B01AC015F772A8F3B8F4C8F5D8F16
:1010D0002E893F89488D598D6A897B898C899D89A4
:1010E0000E945D0B87FDAEC02A8D3B8D4C8D5D8DC2
:1010F0006A897B898C899D890E945D0B87FDA2C0CE
:10110000A5019401C701B6010E94990920E030E0D1
:1011100040E05FE30E94620B0E944F0588EA92E084
:101120000E942204E091C202F091C3028085918561
:10113000A285B385448155816681778100811181C3
:1011400022813381CE8CDF8CE8A0CD86DE86EF86CF
:1011500009831A832B833C834D835E836F83788757
:1011600089879A87AB87BC8783E0E82EF12CBE0184
:10117000635F7F4FCE0101960E94B0034B015C017B
:101180008E01035F1F4F9E012F5F3F4F6901772440
:101190007394F80181918F018823B1F0A501940126
:1011A000F60160817181828193810E9498099F7705
:1011B00020E030E040E050E40E945D0B181624F47B
:1011C000F80131971082712CF4E0CF0ED11C2889E0
:1011D000398902171307E9F6711004C031E0E31AE8
:1011E000F10829F6BE01635F7F4FCE0101960E9490
:1011F000B0030E944F058091C2029091C3020E94E9
:10120000700C6CED75E080E090E00E944A020E9454
:101210007F031BCE8AE10E946801C1010197F1F7AB
:1012200060E08AE10E9468018BE13DCE8EE10E9480
:101230006801C1010197F1F760E08EE10E94680149
:101240008FE131CE2E893F89488D598D6A897B89FE
:101250008C899D890E94050A181674F02A8D3B8D91
:101260004C8D5D8D6E897F89888D998D0E945D0B77
:10127000A701960187FF02C0A5019401C301B20135
:1012800043CFEDECF2E01382128288EE93E0A0E00F
:10129000B0E084839583A683B7838DE092E0918349
:1012A000808385EC90E09587848784EC90E0978735
:1012B000868780EC90E0918B808B81EC90E0938B23
:1012C000828B82EC90E0958B848B86EC90E0978B00
:1012D000868B118E128E138E148E0895A1E21A2E13
:1012E000AA1BBB1BFD010DC0AA1FBB1FEE1FFF1FCA
:1012F000A217B307E407F50720F0A21BB30BE40B1A
:10130000F50B661F771F881F991F1A9469F7609560
:101310007095809590959B01AC01BD01CF0108951A
:10132000EE0FFF1F881F8BBF0790F691E02D1994D9
:101330005058BB27AA270E94B0090C94230B0E9487
:10134000150B38F00E941C0B20F039F49F3F19F464
:1013500026F40C94120B0EF4E095E7FB0C940C0BA6
:10136000E92F0E94340B58F3BA17620773078407FA
:10137000950720F079F4A6F50C94560B0EF4E09541
:101380000B2EBA2FA02D0B01B90190010C01CA013F
:10139000A0011124FF27591B99F0593F50F4503EEA
:1013A00068F11A16F040A22F232F342F4427585FDC
:1013B000F3CF469537952795A795F0405395C9F7F4
:1013C0007EF41F16BA0B620B730B840BBAF09150AC
:1013D000A1F0FF0FBB1F661F771F881FC2F70EC04B
:1013E000BA0F621F731F841F48F48795779567951E
:1013F000B795F7959E3F08F0B0CF9395880F08F00A
:101400009927EE0F9795879508950E94E80A08F4AA
:1014100081E008950E941E0A0C94230B0E941C0B6D
:1014200058F00E94150B40F029F45F3F29F00C940E
:101430000C0B51110C94570B0C94120B0E94340B93
:1014400068F39923B1F3552391F3951B550BBB27F3
:10145000AA2762177307840738F09F5F5F4F220F38
:10146000331F441FAA1FA9F335D00E2E3AF0E0E82F
:1014700032D091505040E695001CCAF72BD0FE2F79
:1014800029D0660F771F881FBB1F2617370748070D
:10149000AB07B0E809F0BB0B802DBF01FF279358C5
:1014A0005F4F3AF09E3F510578F00C940C0B0C9472
:1014B000570B5F3FE4F3983ED4F386957795679595
:1014C000B795F7959F5FC9F7880F911D96958795FA
:1014D00097F90895E1E0660F771F881FBB1F621719
:1014E00073078407BA0720F0621B730B840BBA0BD7
:1014F000EE1F88F7E09508950E943C0B88F09F57F7
:1015000098F0B92F9927B751B0F0E1F0660F771F27
:10151000881F991F1AF0BA95C9F714C0B13091F01D
:101520000E94560BB1E008950C94560B672F782F4C
:101530008827B85F39F0B93FCCF3869577956795E2
:10154000B395D9F73EF490958095709561957F4F4E
:101550008F4F9F4F0895E89409C097FB3EF49095F4
:101560008095709561957F4F8F4F9F4F9923A9F07C
:10157000F92F96E9BB279395F6958795779567950B
:10158000B795F111F8CFFAF4BB0F11F460FF1BC04F
:101590006F5F7F4F8F4F9F4F16C0882311F096E9E2
:1015A00011C0772321F09EE8872F762F05C0662390
:1015B00071F096E8862F70E060E02AF09A95660F49
:1015C000771F881FDAF7880F9695879597F9089502
:1015D000990F0008550FAA0BE0E8FEEF1616170644
:1015E000E807F907C0F012161306E407F50798F0AC
:1015F000621B730B840B950B39F40A2661F0232BC5
:10160000242B252B21F408950A2609F4A140A69540
:101610008FEF811D811D089597F99F6780E870E025
:1016200060E008959FEF80EC089500240A94161658
:10163000170618060906089500240A9412161306C0
:10164000140605060895092E0394000C11F488234E
:1016500052F0BB0F40F4BF2B11F460FF04C06F5F6A
:101660007F4F8F4F9F4F089557FD9058440F551F40
:1016700059F05F3F71F04795880F97FB991F61F014
:101680009F3F79F087950895121613061406551F8B
:10169000F2CF4695F1DF08C0161617061806991FF7
:1016A000F1CF86957105610508940895E894BB27EC
:1016B00066277727CB0197F908950E94E80A08F476
:1016C0008FEF08950E94750B0C94230B0E94150B4D
:1016D00038F00E941C0B20F0952311F00C940C0B99
:1016E0000C94120B11240C94570B0E94340B70F3C2
:1016F000959FC1F3950F50E0551F629FF001729FB7
:10170000BB27F00DB11D639FAA27F00DB11DAA1FC5
:10171000649F6627B00DA11D661F829F2227B00D12
:10172000A11D621F739FB00DA11D621F839FA00D9D
:10173000611D221F749F3327A00D611D231F849FED
:10174000600D211D822F762F6A2F11249F57504044
:101750009AF0F1F088234AF0EE0FFF1FBB1F661FBF
:10176000771F881F91505040A9F79E3F510580F088
:101770000C940C0B0C94570B5F3FE4F3983ED4F39E
:10178000869577956795B795F795E7959F5FC1F72C
:10179000FE2B880F911D9695879597F908950E94C5
:1017A000E80A880B990B08950F931F93CF93DF934B
:1017B0008230910510F482E090E0E0916C03F091AA
:1017C0006D0330E020E0B0E0A0E0309799F42115FF
:1017D000310509F44AC0281B390B24303105D8F5EE
:1017E0008A819B816115710589F1FB019383828355
:1017F000FE0111C0408151810281138148175907B0
:10180000E0F04817590799F4109761F012960C937D
:10181000129713961C933296CF01DF91CF911F91AF
:101820000F91089500936C0310936D03F4CF21156D
:10183000310551F04217530738F0A901DB019A0135
:10184000BD01DF01F801C1CFEF01F9CF90936D0326
:1018500080936C03CDCFFE01E20FF31F8193919330
:101860002250310939832883D7CF20916A033091E0
:101870006B03232B41F42091020230910302309339
:101880006B0320936A03209100023091010221151D
:10189000310541F42DB73EB7409104025091050245
:1018A000241B350BE0916A03F0916B03E217F307F9
:1018B000A0F42E1B3F0B2817390778F0AC014E5FC0
:1018C0005F4F2417350748F04E0F5F1F50936B038F
:1018D00040936A03819391939FCFF0E0E0E09CCF27
:1018E000CF93DF930097E9F0FC01329713821282C5
:1018F000A0916C03B0916D03ED0130E020E01097F2
:10190000A1F420813181820F931F20916A033091CD
:101910006B032817390709F061C0F0936B03E0935C
:101920006A03DF91CF910895EA01CE17DF07E8F54A
:101930004A815B819E0141155105B1F7E901FB83A5
:10194000EA8349915991C40FD51FEC17FD0761F443
:10195000808191810296840F951FE9019983888384
:10196000828193819B838A83F0E0E0E012968D91DF
:101970009C9113970097B9F52D913C911197CD014A
:101980000296820F931F20916A0330916B032817F0
:10199000390739F6309751F510926D0310926C03A8
:1019A000B0936B03A0936A03BCCFD383C2834081FF
:1019B0005181840F951FC817D90761F44E5F5F4F9F
:1019C00088819981480F591F518340838A819B8167
:1019D000938382832115310509F0B0CFF0936D0315
:1019E000E0936C039ECFFD01DC01C0CF1382128215
:0619F000D7CFF894FFCFF1
:1019F60000006E0380000101010000000012037C5C
:101A060002A9025F03DA02B802CC026E616E0069B7
:101A16006E66006F7666000D0A000A57796E696B6E
:101A26006920706F6D6961726F773A0A312E2000F6
:101A3600636D0A322E2000636D0A332E2000636D1B
:101A46000A00416C676F7279746D206D616A6F72FE
:101A56006974795F766F74653A2000416C676F72BE
:101A660079746D2066696E645F6D656469616E5F29
:101A7600736F727465643A2000416C676F72797493
:101A86006D2074687265655F646F6D61696E5F76FF
:101A96006F746572733A2000416C676F7279746D6A
:101AA600206974657261746976655F766F74653AEC
:021AB60020000E
:00000001FF
